:100000000DC100003BC1000039C1000037C1000034
:1000100035C1000033C1000031C100002FC1000014
:100020002DC100002BC1000029C1000027C1000024
:1000300025C1000023C1000021C100001FC1000034
:100040001DC100001BC1000019C1000017C1000044
:1000500015C1000013C1000011C1000023C600003B
:100060000DC10000D1C50000A6C5000007C10000F9
:1000700005C1000003C1000001C10000FFC0000075
:10008000FDC00000FBC00000F9C00000F7C0000088
:10009000F5C00000F3C00000F1C00000EFC0000098
:1000A000EDC00000EBC00000E9C00000E7C00000A8
:1000B000E5C00000E3C00000E1C00000DFC00000B8
:1000C000DDC00000DBC00000D9C000004BC500004F
:1000D00020C50000D3C00000F3C40000C8C4000065
:1000E000CDC000004E414E494E495459494E46CD6F
:1000F000CCCC3D0AD7233C17B7D13877CC2B3295DF
:1001000095E6241FB14F0A000020410000C84200BC
:10011000401C4620BCBE4CCA1B0E5AAEC59D740086
:10012000407A10F35A00A0724E18090010A5D4E8C6
:100130000000E87648170000E40B54020000CA9A59
:100140003B000000E1F505000080969800000040AB
:10015000420F000000A086010000001027000000F0
:1001600000E803000000006400000000000A000036
:100170000000000100000000002C76D888DC674FEA
:100180000823DFC1DFAE59E1B1B796E5E3E453C61A
:100190003AE651997696E8E6C28426EB898C9B6212
:1001A000ED407C6FFCEFBC9C9F40F2BAA56FA5F4BC
:1001B00090055A2AF75C936B6CF9676DC11BFCE0E4
:1001C000E40D47FEF520E6B500D0ED902E03009437
:1001D0003577050080841E080000204E0A000000CC
:1001E000C80C333333330F986E12831141EF8D21D6
:1001F00014893BE65516CFFEE6DB18D1844B381B3D
:10020000F77C1D901DA4BBE424203284725E228101
:1002100000C9F124ECA1E53D2700591411241FBEAB
:10022000CFEFD1E2DEBFCDBF00E00CBF28E0AEE6ED
:10023000B3E001C01D92AF32B207E1F713E0A0E0D6
:10024000B2E0E4EEF8E300E00BBF02C007900D92CD
:10025000AE36B107D9F711E0CEE0D1E000E006C03C
:1002600021970109802FFE010E943A1CCD30D10751
:1002700080E00807A9F77AD60C94701CC1CECF9203
:10028000DF92EF92FF920F931F93CF93DF936C0156
:100290007A018B01C0E0D0E0CE15DF0589F0D801EE
:1002A0006D918D01D601ED91FC910190F081E02DD1
:1002B000C6011995892B11F47E0102C02196ECCF5D
:1002C000C701DF91CF911F910F91FF90EF90DF90C9
:1002D000CF9008950E94421C009761F0FC010190AC
:1002E0000020E9F73197AF01481B590BBC0188EAA0
:1002F00094E0C5CF80E090E00895CF93DF93ECDFEA
:10030000EC0183E693E0E8DF8C0F9D1FDF91CF9136
:100310000895CF92DF92EF92FF920F931F93CF93A6
:10032000DF93EC016A017B01E889F98982E080832F
:100330004115514E61057105B1F060E079E08DE342
:1003400090E0A70196010E94181C89019A010150B2
:1003500011092109310936952795179507959801B7
:1003600001151041A8F0E889F989108260E874E865
:100370008EE190E0A70196010E94181CDA01C901E4
:100380000197A109B109B695A795979587959C0105
:10039000EC85FD853083EE85FF852083188EEC8902
:1003A000FD8986E08083EA89FB8980818061808382
:1003B000EA89FB89808188608083EA89FB89808162
:1003C00080688083EA89FB8980818F7D8083DF91CB
:1003D000CF911F910F91FF90EF90DF90CF900895F4
:1003E0000F931F93CF93DF93C9EBD5E00991199138
:1003F000B8018AE892E00E94511C892B21F1B801D2
:1004000083EB95E00E94511C892B29F086E0C930CE
:10041000D80761F718C0CFE5D5E08E01809145057A
:1004200090914605DC01ED91FC910190F081E02D69
:1004300069911995F80180818A3039F0F5E0C33B64
:10044000DF0759F702C080E001C081E0DF91CF9162
:100450001F910F910895CF93DF9384E1E9E4F5E0D4
:10046000DF011D928A95E9F7E0E6F5E0C0E0D0E013
:1004700081918A3249F0082E000C990BC827D927A0
:10048000B5E0E738FB07A1F7BE01D7FF02C0615F07
:100490007F4F84E0759567958A95E1F7072E000CEC
:1004A000880B990B0E9490190E94BD1B0E948C1B07
:1004B00020EF2603A001279F500D1124FE01E40F19
:1004C000F51F6A30710514F420E301C027E3422FC1
:1004D000460F40934905EA30F10514F420E301C0CA
:1004E00027E3822F8E0F80934A0589E495E0DF9100
:1004F000CF9108950F931F93CF93DF9324E1E9E405
:10050000F5E0DF011D922A95E9F78F0121E043E133
:100510000E94581580914905803279F4EAE4F5E0AB
:100520008081EF012197888380813196882391F320
:10053000B5E0ED35FB07A1F7EDCF89E495E0DF915C
:10054000CF911F910F91089584E5EFE5F5E0DF016C
:100550001D928A95E9F70895CF93DF93F5DF6AEB53
:1005600072E083EB95E00E945A1C66E673E08FE52B
:1005700095E00E945A1CCDE0D6E0E881F9816085C3
:10058000718582859385B6DFBC018FE595E00E9479
:10059000461C6CE673E08FE595E00E94461CE881FE
:1005A000F9812085318542855385648575858685E9
:1005B00097850E94BF1A9EDFBC018FE595E00E94DF
:1005C000461C6EE373E08FE595E00E94461C43DF16
:1005D000BC018FE595E00E94461C60E473E08FE566
:1005E00095E00E94461C64E673E08FE595E00E946A
:1005F000461CDF91CF91F4CE20914F0630915006EA
:10060000880F991F820F931FFC01EE5AFF4F408104
:10061000518132968081918164E1E3E1F6E0DF016E
:100620001D926A95E9F7F901E40FF51FA3E1B6E021
:10063000435156409C0121503109CD0183519640D0
:10064000BA016A0F7B1F6217730718F481918D93AB
:10065000F4CFFC01ED5EF94F108283E196E008953E
:100660008F929F92AF92BF92CF92DF92EF92FF92C2
:10067000CF93C62F0E9477154B015C0120E030E03C
:1006800048EC52E40E94241B0E94BD1B6B017C01BC
:1006900020E030E048EC52E40E94EF199B01AC01ED
:1006A000C501B4010E94BF1A20E030E040E752E4E7
:1006B0000E94241B9B01AC01C701B6010E94C01A15
:1006C000CB7FC33509F49058CF91FF90EF90DF9026
:1006D000CF90BF90AF909F908F9008954F925F9270
:1006E0006F927F928F929F92AF92BF92CF92DF9242
:1006F000EF92FF92CF93DF937B01EA010E9477157F
:100700004B015C0120E030E44CE156E40E94241BE4
:100710000E94BD1B2B013C01B70180E090E00E94CC
:100720008E199B01AC01C301B2010E94C01A6B017A
:100730007C0120E030E44CE156E40E94EF199B017B
:10074000AC01C501B4010E94BF1A4B015C0120E05D
:1007500030E048EC52E40E94241B0E94BD1B2B0198
:100760003C01BE0180E090E00E948E199B01AC012B
:10077000C301B2010E94C01A2B013C0120E030E00D
:1007800048EC52E40E94EF199B01AC01C501B40191
:100790000E94BF1A0E94BD1B4B015C0120E030E0AB
:1007A00041E655E4C701B6010E94EF196B017C01D7
:1007B00020E030E040E752E4C301B2010E94EF19AB
:1007C0009B01AC01C701B6010E94C01AA5019401AA
:1007D0000E94C01ADF91CF91FF90EF90DF90CF90F1
:1007E000BF90AF909F908F907F906F905F904F9051
:1007F0000895FC01A089B1898C91A689B78982FDF1
:100800000FC09C91818D8F5F8F73228D821749F06D
:10081000218DDF01A20FB11D5D969C93818F0895FC
:100820008C910895089580E090E00895FC01538D27
:10083000448D252F30E0842F90E0821B930B5417BA
:1008400010F0CF96089501970895FC01918D828D47
:10085000981761F0828DDF01A80FB11D5D968C9114
:10086000928D9F5F9F73928F90E008958FEF9FEF1F
:100870000895FC01918D828D981731F0828DE80FDB
:10088000F11D858D90E008958FEF9FEF0895FC0195
:10089000918D228D892F90E0805C9F4F821B910962
:1008A0008F73992708958EE693E0F1DF21E0892B7D
:1008B00009F420E0822F08958BE094E0E8DF21E046
:1008C000892B09F420E0822F089588EA94E0DFDF85
:1008D00021E0892B09F420E0822F0895FC01848D0A
:1008E000DF01A80FB11DA35ABF4F2C91848D90E05A
:1008F00001968F739927848FA689B7892C93A08935
:10090000B1898C91837080648C93938D848D9813BE
:1009100006C00288F389E02D80818F7D8083089551
:10092000EF92FF920F931F93CF93DF93EC0181E03F
:10093000888F9B8D8C8D981305C0E889F9898081FB
:1009400085FD25C0F62E0B8D10E00F5F1F4F0F7336
:100950001127E02E8C8DE8120BC00FB607FCFACFE2
:10096000E889F989808185FFF5CFCE01B7DFF2CF25
:100970008B8DFE01E80FF11DE35AFF4FF0829FB708
:10098000F8940B8FEA89FB89808180620AC09FB747
:10099000F894EE89FF896083E889F9898081837002
:1009A000806480839FBF81E090E0DF91CF911F91B1
:1009B0000F91FF90EF900895CF93DF93EC01888D16
:1009C0008823C1F0EA89FB89808185FD05C0A8895B
:1009D000B9898C9186FD0EC00FB607FCF5CF8081DA
:1009E00085FFF2CFA889B9898C9185FFEDCFCE0123
:1009F00075DFE8CFDF91CF91089580E090E0892BFB
:100A000019F063DF81111BC080E090E0892B41F079
:100A100080E090E0892B21F00E940000811112C03B
:100A200080E090E0892B19F047DF81110EC080E053
:100A300090E0892B79F037DF81110AC008950E9478
:100A40000000E2CF0E940000EBCF0E940000EFCF39
:100A50000C94000008952FB7F894609125087091C8
:100A6000260880912708909128082FBF08951F928B
:100A70000F920FB60F9211240BB60F922F933F9344
:100A80004F935F936F937F938F939F93AF93BF9396
:100A9000EF93FF938EE693E021DFFF91EF91BF91FB
:100AA000AF919F918F917F916F915F914F913F9106
:100AB0002F910F900BBE0F900FBE0F901F901895A7
:100AC0001F920F920FB60F9211240BB60F922F9315
:100AD0003F934F935F936F937F938F939F93AF93C6
:100AE000BF93EF93FF938EE693E083DEFF91EF9148
:100AF000BF91AF919F918F917F916F915F914F9136
:100B00003F912F910F900BBE0F900FBE0F901F9033
:100B100018951F920F920FB60F9211240BB60F92D9
:100B20002F933F934F935F936F937F938F939F93F5
:100B3000AF93BF93EF93FF938BE094E0CFDEFF91F1
:100B4000EF91BF91AF919F918F917F916F915F9145
:100B50004F913F912F910F900BBE0F900FBE0F90B2
:100B60001F9018951F920F920FB60F9211240BB67B
:100B70000F922F933F934F935F936F937F938F9336
:100B80009F93AF93BF93EF93FF938BE094E031DE9D
:100B9000FF91EF91BF91AF919F918F917F916F9155
:100BA0005F914F913F912F910F900BBE0F900FBE11
:100BB0000F901F9018951F920F920FB60F9211244D
:100BC0000BB60F922F933F934F935F936F937F9347
:100BD0008F939F93AF93BF93EF93FF9388EA94E033
:100BE0007DDEFF91EF91BF91AF919F918F917F91AA
:100BF0006F915F914F913F912F910F900BBE0F908E
:100C00000FBE0F901F9018951F920F920FB60F9264
:100C100011240BB60F922F933F934F935F936F93D3
:100C20007F938F939F93AF93BF93EF93FF9388EA44
:100C300094E0DFDDFF91EF91BF91AF919F918F9194
:100C40007F916F915F914F913F912F910F900BBECC
:100C50000F900FBE0F901F9018953FB7F89480919A
:100C6000290890912A08A0912B08B0912C0826B54C
:100C7000A89B05C02F3F19F00196A11DB11D3FBFD4
:100C8000BA2FA92F982F8827820F911DA11DB11D62
:100C9000BC01CD0142E0660F771F881F991F4A955E
:100CA000D1F708951F920F920FB60F9211242F9330
:100CB0003F938F939F93AF93BF938091250890911B
:100CC0002608A0912708B09128083091240823E035
:100CD000230F2D3720F40196A11DB11D05C026E874
:100CE000230F0296A11DB11D20932408809325088F
:100CF00090932608A0932708B0932808809129088C
:100D000090912A08A0912B08B0912C080196A11D62
:100D1000B11D8093290890932A08A0932B08B093C3
:100D20002C08BF91AF919F918F913F912F910F9080
:100D30000FBE0F901F901895CF93DF93EC01FC012D
:100D4000349687E0DF011D928A95E9F780E090E014
:100D5000A0ECBFE78BA79CA7ADA7BEA78B879C87FE
:100D6000AD87BE878F87988BA98BBA8B8B8B9C8B1B
:100D7000AD8BBE8B8F8B988FA98FBA8F8B8F9C8FEB
:100D8000AD8FBE8F8F8F98A3A9A3BAA38BA39CA36B
:100D9000ADA3BEA38FA398A7A9A7BAA75CDE68835B
:100DA00079838A839B83DF91CF910895CF93DF93DB
:100DB000EC0180E090E0A0ECBFE78C839D83AE83E4
:100DC000BF8388879987AA87BB878C879D87AE87D3
:100DD000BF87888B998BAA8BBB8B3DDE6883798319
:100DE0008A839B83DF91CF910895CF93DF93EC01AA
:100DF0002FEF3FEF3FA72EA780E090E0A0ECBFE7EA
:100E00008AAB9BABACABBDAB4EE353E05D834C8395
:100E100039AB28AB8EAB9FABA8AFB9AF8AAF9BAF56
:100E2000ACAFBDAFFE01FE9680839183A283B383F6
:100E3000349680839183A283B38334968083918395
:100E4000A283B383349680839183A283B383349641
:100E500080839183A283B383749680839183A283DA
:100E6000B383389780839183A283B383349680833E
:100E70009183A283B3833C9780839183A283B383BE
:100E8000AE014A5F5F4F24E1FA01322F11923A9589
:100E9000E9F74C5E5F4FFA0111922A95E9F7FE01DE
:100EA000EA5AFF4F80839183A283B383D4DD6883A2
:100EB00079838A839B83DF91CF910895CF93DF93CA
:100EC000EC0180E090E0A0ECBFE78C839D83AE83D3
:100ED000BF838C879D87AE87BF8788879987AA87BE
:100EE000BB87888B998BAA8BBB8B8C8B9D8BAE8B96
:100EF000BF8B888F998FAA8FBB8F8C8F9D8FAE8F62
:100F0000BF8FA9DD688379838A839B83DF91CF912B
:100F10000895CF93DF93EC0180E090E0A0ECBFE771
:100F20008C839D83AE83BF8388879987AA87BB877D
:100F30008C879D87AE87BF87888B998BAA8BBB8B4D
:100F40008C8B9D8BAE8BBF8B8FEF9FEF998F888F94
:100F50009B8F8A8F9D8F8C8F9F8F8E8F7CDD688378
:100F600079838A839B83DF91CF910895CF93DF9319
:100F7000CDB7DEB762970FB6F894DEBF0FBECDBF18
:100F8000789484B5826084BD84B5816084BD85B564
:100F9000826085BD85B5816085BD80916E00816070
:100FA00080936E0010928100809181008260809316
:100FB0008100809181008160809381008091800018
:100FC0008160809380008091B10084608093B10043
:100FD0008091B00081608093B00080919100826028
:100FE0008093910080919100816080939100809125
:100FF00090008160809390008091A1008260809336
:10100000A1008091A10081608093A1008091A00047
:1010100081608093A00080912101826080932101F2
:101020008091210181608093210180912001816064
:101030008093200180917A00846080937A0080916F
:101040007A00826080937A0080917A008160809338
:101050007A0080917A00806880937A001092C100B3
:1010600040E052EC61E070E088EA94E052D9F5DDAE
:101070004B015C01B8EECB2EB3E0DB2EE12CF12C62
:10108000ECDDDC01CB0188199909AA09BB09883E6E
:101090009340A105B10558F021E0C21AD108E1083A
:1010A000F10888EE880E83E0981EA11CB11CC114C3
:1010B000D104E104F10421F78AE692E01ED98EE61C
:1010C00093E0909391078093900740EC52E160E0A9
:1010D00070E01FD980919007909191070097F1F3EC
:1010E00084E792E00AD98BE094E0909346058093E0
:1010F000450540EC52E160E070E00BD98091450578
:10110000909146050097F1F387E297E090930E06E1
:1011100080930D068BE597E090931206809311065D
:1011200081EA96E090930A068093090681EC96E0A6
:1011300090930C0680930B0687E497E0909310063B
:1011400080930F068FE792E0D8D802E010E073E0BA
:10115000E72EF12CEDE02E2EFAE03F2EACE9CA2E60
:10116000A7E0DA2E8091900790919107DC01ED9134
:10117000FC910084F185E02D19951816190614F0DC
:101180000C9450148091900790919107DC01ED919F
:10119000FC910284F385E02D19958A3029F4109290
:1011A00097071092960739C0813211F08432A9F561
:1011B000109222081092210894E5F60111929A9556
:1011C000E9F798E2A0EFB7E01D929A95E9F710923F
:1011D00018081092190810921A0810921B08109201
:1011E0001C0810921D0810921E08109220081092E0
:1011F0001F08109223081092990710929807809365
:101200009C0781E090E090939507809394079093DA
:101210009707809396070C9450142091960730916D
:1012200097072230310509F451C02330310509F404
:1012300075C02130310509F095CF20919407309188
:101240009507A9014F5F5F4F50939507409394070F
:10125000F901E057F84F84878A32C9F02091980746
:10126000309199078C3241F580911F0890912008A8
:10127000FC01EE0FFF1FE051F84F518340830196B0
:101280009093200880931F08BCE22B271AC010936C
:1012900097070093960780911F0890912008FC0102
:1012A000EE0FFF1FE051F84F51834083019690935A
:1012B000200880931F0856CF082E000C990B282772
:1012C000392730939907209398074CCF20919407A2
:1012D00030919507A9014F5F5F4F50939507409359
:1012E0009407F901E057F84F8487282F082E000C47
:1012F000330B81341CF0C901C79702C0C901C097E4
:1013000024E0880F991F2A95E1F790939B0780931B
:101310009A07F0929707E092960724CF20919407BE
:1013200030919507F901E057F84F848725862D5FA6
:101330003F4F30939507209394073686482F082E09
:10134000000C550B81341CF0CA01C79702C0CA01BA
:10135000C09740919A0750919B07842B952B9093AF
:101360009B0780939A0740919807509199074817D7
:10137000590711F00C94501480919D0780931C081C
:1013800080919E0780931D0810921E0880919F07F0
:10139000809318088091A007809319088091A10775
:1013A00080931A0810921B08E1E0E0932308309321
:1013B0002208209321081092970710929607109206
:1013C00095071092940710928F0710928E07D09273
:1013D0005006C0924F0681E5A82E86E0B82EF50192
:1013E000819091905F01B4018AE892E00E94511CC3
:1013F000892B11F40C946B13B40188E198E00E94DE
:10140000511C892B11F00C9464136EE872E088E192
:1014100098E00E94511C892B81F581EC96E0E5DC77
:1014200081E090E0E9D821E030E0DC018C9181346A
:1014300011F020E030E03093F0062093EF0682E0D8
:1014400090E0DAD821E030E0FC018081813411F0B5
:1014500020E030E03093F2062093F10683E090E044
:10146000CBD80E9477156093F3067093F4068093AF
:10147000F5069093F6060C94111362E972E088E188
:1014800098E00E94511C892B09F07BC081EC96E00A
:10149000ACDC83E090E0B0D80E9477154B015C0192
:1014A00085E090E0A9D8DC018C918D3449F48092DC
:1014B0000F0790921007A0921107B092120710C068
:1014C00026E53EE04DEE5FE3C501B4010E94241B1A
:1014D00060930F0770931007809311079093120782
:1014E00084E090E089D8FC018081082E000C990BE3
:1014F0009093C6068093C50686E090E07DD821E0F3
:1015000030E0DC018C91813411F020E030E0309348
:10151000F0062093EF0687E090E06ED821E030E0FF
:10152000FC018081813411F020E030E03093F2063C
:101530002093F10689E090E05FD8DC018C918D3436
:1015400071F488E090E058D80E9477156093FF0608
:101550007093000780930107909302070FC08435B2
:1015600069F488E090E048D80E94771560930307FB
:101570007093040780930507909306078AE090E034
:10158000F4C166E972E088E198E00E94511C892B61
:1015900009F0DAC081EC96E028DC83E090E02CD8FA
:1015A0000E9477154B015C0185E090E025D8FC0195
:1015B00080818D3449F480920F0790921007A09299
:1015C0001107B092120710C026E53EE04DEE5FE332
:1015D000C501B4010E94241B60930F07709310078C
:1015E000809311079093120784E090E005D8DC0106
:1015F0008C91082E000C990B9093C6068093C5061B
:1016000086E090E00E94FC0221E030E0FC01808155
:10161000813411F020E030E03093F0062093EF06A3
:1016200087E090E00E94FC0221E030E0DC018C9138
:10163000813411F020E030E03093F2062093F1067F
:1016400089E090E00E94FC02FC0180818D3479F4F5
:1016500088E090E00E94FC020E9477156093FF06EC
:1016600070930007809301079093020710C08435A0
:1016700071F488E090E00E94FC020E94771560936C
:1016800003077093040780930507909306078AE089
:1016900090E00E94FC0244E150E0BC018BED96E03A
:1016A0000E94611C1092EE068CE090E00E94FC0209
:1016B000DC018C918D3479F48BE090E00E94FC0287
:1016C0000E9477156093F7067093F8068093F906E9
:1016D0009093FA0610C0843571F48BE090E00E947C
:1016E000FC020E9477156093FB067093FC068093C2
:1016F000FD069093FE068EE090E00E94FC02FC0145
:1017000080818D3479F48DE090E00E94FC020E948B
:1017100077156093070770930807809309079093E4
:101720000A07C9C0843509F0C6C08DE090E00E9468
:10173000FC020E94771560930B0770930C0780934F
:101740000D0790930E07B7C06AE972E088E198E050
:101750000E94511C892B09F06CC081EC96E045DB9E
:1017600081E090E00E94FC0240E050E060E070E028
:101770000E946E03609323077093240780932507CC
:101780009093260783E090E00E94FC02682F82E09D
:1017900090E06A8B0E94FC026A890E943003609389
:1017A0001B0770931C0780931D0790931E0785E00D
:1017B00090E00E94FC02682F84E090E06A8B0E9417
:1017C000FC026A890E94300360931F077093200710
:1017D000809321079093220786E090E00E94FC020C
:1017E0000E9477156093FB067093FC068093FD06BC
:1017F0009093FE0688E090E00E94FC020E9477151C
:101800006093F7067093F8068093F9069093FA06B2
:101810008AE090E00E94FC020E9477156093130713
:101820007093140780931507909316078CE090E04F
:101830009CC06EE972E088E198E00E94511C892BFF
:1018400009F03EC081EC96E0D0DA81E090E00E94A1
:10185000FC020E9477156093FB067093FC06809350
:10186000FD069093FE0683E090E00E94FC020E9439
:1018700077156093F7067093F8068093F9069093B6
:10188000FA0685E090E00E94FC0244E150E0BC01D1
:101890008BED96E00E94611C1092EE0686E090E0CF
:1018A0000E94FC0244E150E0BC0187EC96E00E94FB
:1018B000611C1092DA0610938F0700938E07F4C70D
:1018C00062EA72E088E198E00E94511C892B09F4D9
:1018D00044CF66EA72E088E198E00E94511C892BAF
:1018E00009F43BCF6AEA72E088E198E00E94511C5B
:1018F000892B09F046C081EC96E077DAE0E0F2E06F
:10190000DE011A9688E001900D928A95E1F76C84C9
:101910007D848E849F84A888B9888A859B850E944F
:10192000FC020E9477156093FB067093FC0680937F
:10193000FD069093FE06C3010E94FC020E947715EB
:101940006093F7067093F8068093F9069093FA0671
:10195000C4010E94FC0244E150E0BC0187EC96E027
:101960000E94611C1092DA06C5010E94FC0244E14B
:1019700050E0BC018BED96E00E94611C1092EE06D7
:101980009ACF6EEA72E088E198E00E94511C892BA0
:1019900051F487E297E092DA83E090E00E94FC0243
:1019A0000E94771592C062EB72E088E198E00E9495
:1019B000511C892BC1F487E297E080DA83E090E044
:1019C0000E94FC020E9477156093330770933407DE
:1019D000809335079093360785E090E090938F07CA
:1019E00080938E0761C766EB72E088E198E00E9401
:1019F000511C892B91F487E297E060DA83E090E054
:101A00000E94FC020E94771560932F0770933007A5
:101A10008093310790933207DFCF6AEB72E088E161
:101A200098E00E94511C892B09F058C087E297E08A
:101A300045DA81E090E00E94FC020E9477154B019C
:101A40005C0182E090E00E94FC020E9477152B016D
:101A50003C0180922F0790923007A0923107B092FC
:101A6000320720E030E0A9010E94101C87FD1BC056
:101A7000A3019201C501B4010E94C01A609333070B
:101A800070933407809335079093360780E090E099
:101A9000A0ECBFE780932B0790932C07A0932D0712
:101AA000B0932E0799CF80E090E0A0ECBFE7809341
:101AB000330790933407A0933507B0933607A301FB
:101AC0009201C501B4010E94C01A60932B07709364
:101AD0002C0780932D0790932E077ECF6EEB72E03C
:101AE00088E198E00E94511C892B09F066C081EAC8
:101AF00096E00FDA8BE597E01FD981E090E00E9435
:101B0000FC0240E050E060E070E00E946E036093F1
:101B10008A0770938B0780938C0790938D0783E0DF
:101B200090E00E94FC02682F82E090E06A8B0E94A5
:101B3000FC026A890E9430036093A5067093A60692
:101B40008093A7069093A80685E090E00E94FC028F
:101B5000682F84E090E06A8B0E94FC026A890E94F0
:101B600030036093A9067093AA068093AB06909306
:101B7000AC0687E090E00E94FC02BCD79093BC06C4
:101B80008093BB0688E090E00E94FC02B0D760938F
:101B9000B1067093B2068093B3069093B40689E0C1
:101BA00090E00E94FC02A3D760938607709387079A
:101BB000809388079093890767C262EC72E088E19E
:101BC00098E00E94511C892B09F04CC081EA96E0F4
:101BD000A0D98BE597E0B0D886E090E00E94FC02A7
:101BE000DC018C91813409F05FC682E090E00E94B4
:101BF000FC02682F81E090E06A8B0E94FC026A89F7
:101C00000E9430036093A5067093A6068093A706F2
:101C10009093A80684E090E00E94FC02682F83E085
:101C200090E06A8B0E94FC026A890E9430036093F4
:101C3000A9067093AA068093AB069093AC0685E044
:101C400090E00E94FC0240E050E060E070E00E9402
:101C50006E0360938A0770938B0780938C07909331
:101C60008D0712C266EC72E088E198E00E94511C78
:101C7000892B59F581EA96E04CD98FE090E00E94DB
:101C8000FC0235D76093AD067093AE068093AF0625
:101C90009093B00680E190E00E94FC0228D7609308
:101CA000B1067093B2068093B3069093B40681E1B7
:101CB00090E00E94FC021BD76093B5067093B606B5
:101CC0008093B7069093B806EDC36AEC72E088E1A2
:101CD00098E00E94511C892B79F481EA96E019D989
:101CE00083E090E00E94FC0202D70E948C1B70935C
:101CF000BC066093BB06D6C36EEC72E088E198E048
:101D00000E94511C892B79F58BE597E015D881E06D
:101D100090E00E94FC02EBD660937E0770937F07F1
:101D2000809380079093810784E090E00E94FC02FA
:101D3000DED64B015C0185E090E00E94FC02FC01D4
:101D40008081853439F0873509F0B9C4B7FAB09489
:101D5000B7F8B0948092820790928307A09284078C
:101D6000B0928507ACC462ED72E088E198E00E9411
:101D7000511C892B39F48BE597E00E949C0681E089
:101D800090E035C066ED72E088E198E00E94511C59
:101D9000892B91F48BE597E00E949C0681E090E00E
:101DA0000E94FC02A4D660937A0770937B0780930D
:101DB0007C0790937D0783C46AED72E088E198E028
:101DC0000E94511C892BF9F48BE597E00E949C0638
:101DD00081E090E00E94FC028AD660937A077093BB
:101DE0007B0780937C0790937D0783E090E00E94BF
:101DF000FC027DD660937E0770937F0780938007F7
:101E0000909381075CC46EED72E088E198E00E94D7
:101E1000511C892B89F487E297E050D881E090E04B
:101E20000E94FC0264D66093370770933807809352
:101E3000390790933A07D0CD62EE72E088E198E0DE
:101E40000E94511C892B01F587E297E037D881E089
:101E500090E00E94FC024BD660933B0770933C07D6
:101E600080933D0790933E0783E090E00E94FC0240
:101E70003ED660933F07709340078093410790934D
:101E8000420785E090E039C066EE72E088E198E0B4
:101E90000E94511C892B09F03CC087E297E00ED8C4
:101EA00082E090E00E94FC02DC018C91823571F4AA
:101EB00081E090E00E94FC021AD660933F07709385
:101EC0004007809341079093420715C082E090E05D
:101ED0000E94FC02FC018081843569F481E090E07D
:101EE0000E94FC0204D660933B0770933C078093EA
:101EF0003D0790933E0783E090E00E94FC02F7D5F7
:101F00006093430770934407809345079093460777
:101F100063CD6AEE72E088E198E00E94511C892B43
:101F200009F03BC08BE597E00E949C0681E090E0C1
:101F30000E94FC02DCD560937A0770937B07809344
:101F40007C0790937D0784E090E00E94FC02CFD54F
:101F5000609372077093730780937407909375076B
:101F600085E090E00E94FC02C2D560936607709302
:101F70006707809368079093690787E090E00E9465
:101F8000FC02B5D560937607709377078093780746
:101F90009093790788E090E023C26EEE72E088E1CA
:101FA00098E00E94511C892B09F47EC462EF72E014
:101FB00088E198E00E94511C892B09F068C081EAF1
:101FC00096E00E9489078BE597E00E949C0683E0DB
:101FD00090E00E94FC02682F82E090E06A8B0E94F1
:101FE000FC026A890E9430036093A5067093A606DE
:101FF0008093A7069093A80685E090E00E94FC02DB
:10200000682F84E090E06A8B0E94FC026A890E943B
:1020100030036093A9067093AA068093AB06909351
:10202000AC0688E090E00E94FC0261D560936607F0
:102030007093670780936807909369078AE090E040
:102040000E94FC0254D560938207709383078093AB
:102050008407909385078BE090E00E94FC02DC01EE
:102060008C91873589F48091820790918307A091A4
:102070008407B0918507B0588093820790938307B7
:10208000A0938407B093850784E090E0A7CC66EF27
:1020900072E088E198E00E94511C892B09F09AC0F7
:1020A00081EC96E00E94F50682E090E00E94FC023E
:1020B0001ED560930F0770931007809311079093BC
:1020C000120783E090E00E94FC02FC018081082E50
:1020D000000C990B9093C6068093C50684E090E0AF
:1020E0000E94FC0244E150E0BC018BED96E00E94AE
:1020F000611C1092EE0685E090E00E94FC0244E133
:1021000050E0BC0187EC96E00E94611C1092DA0658
:1021100087E090E00E94FC02682F86E090E06A8BE6
:102120000E94FC026A890E94300360931B0770932F
:102130001C0780931D0790931E0789E090E00E9482
:10214000FC02682F88E090E06A8B0E94FC026A899A
:102150000E94300360931F0770932007809321072C
:10216000909322078AE090E00E94FC02C0D4609322
:1021700013077093140780931507909316078BE04D
:1021800090E00E94FC02B3D46093FB067093FC06BF
:102190008093FD069093FE068CE090E00E94FC0286
:1021A000A6D460931707709318078093190790932C
:1021B0001A078DE090E00E94FC0221E030E0DC0193
:1021C0008C91813411F020E030E03093F0062093C0
:1021D000EF0671CB6AEF72E088E198E00E94511C33
:1021E000892B09F068C081EA96E00E9489078BE597
:1021F00097E00E949C0682E090E00E94FC02FC01B5
:102200008081813409F040CF81E090E00E94FC029F
:1022100040E050E060E070E00E946E0360938A0747
:1022200070938B0780938C0790938D0784E090E0E8
:102230000E94FC02682F83E090E06A8B0E94FC02FF
:102240006A890E9430036093A5067093A606809366
:10225000A7069093A80686E090E00E94FC02682FF3
:1022600085E090E06A8B0E94FC026A890E9430033C
:102270006093A9067093AA068093AB069093AC0670
:1022800087E090E00E94FC0232D46093660770936E
:102290006707809368079093690789E090E00E9440
:1022A000FC0247E050E0BC018FE597E00E94611C12
:1022B00010926507C3CE6EEF72E088E198E00E944D
:1022C000511C892B91F487E497E00E94D60681E0A7
:1022D00090E00E94FC020BD460934B0770934C0774
:1022E00080934D0790934E0750C062E073E088E101
:1022F00098E00E94511C892B79F587E497E00E94B1
:10230000D60685E090E00E94FC02FC0180818134C9
:10231000E1F581E090E00E94FC02DC012C9183E079
:1023200090E02A8B0E94FC02E2D32A89253449F4EA
:102330006093530770935407809355079093560703
:1023400024C0233511F560934F0770935007809395
:1023500051079093520719C066E073E088E198E056
:102360000E94511C892BA1F487E497E00E94D606B5
:1023700081E090E00E94FC02BAD36093570770930B
:1023800058078093590790935A0786E090E026CB30
:102390006AE073E088E198E00E94511C892B61F5A6
:1023A0008BE597E00E949C0681E090E00E94FC0291
:1023B0009ED360937A0770937B0780937C079093FA
:1023C0007D0783E090E00E94FC0291D360937E073A
:1023D00070937F07809380079093810785E090E05A
:1023E0000E94FC0284D360936E0770936F07809302
:1023F00070079093710763C16EE073E088E198E025
:102400000E94511C892B61F58BE597E00E949C0688
:1024100081E090E00E94FC026AD360937A07709397
:102420007B0780937C0790937D0783E090E00E9478
:10243000FC025DD360937E0770937F0780938007D3
:102440009093810785E090E00E94FC0250D3609356
:102450006A0770936B0780936C0790936D072FC189
:1024600062E173E088E198E00E94511C892BE9F455
:1024700081EA96E00E94890781E090E00E94FC02D8
:1024800036D30E948C1B7093BE066093BD0683E01A
:1024900090E00E94FC022BD30E948C1B7093C0061C
:1024A0006093BF0681E090E099CA66E173E088E13D
:1024B00098E00E94511C892B61F58BE597E00E9402
:1024C0009C0681E090E00E94FC0211D360937A07A1
:1024D00070937B0780937C0790937D0783E090E067
:1024E0000E94FC0204D360937E0770937F07809361
:1024F00080079093810785E090E00E94FC02F7D26C
:1025000060936607709367078093680790936907E5
:10251000D6C06AE173E088E198E00E94511C892BE3
:1025200029F487E297E00E945E07D8CC6EE173E061
:1025300088E198E00E94511C892BA1F481EC96E07F
:102540000E94F50681E090E00E94FC02D0D26093E8
:102550001707709318078093190790931A0783E061
:1025600090E003CA62E273E088E198E00E94511CA7
:10257000892B09F581EC96E00E94F50681E090E058
:102580000E94FC02B4D260931307709314078093E7
:1025900015079093160785E090E00E94FC0244E145
:1025A00050E0BC018BED96E00E94611C1092EE069B
:1025B00085E090E075C966E273E088E198E00E94EA
:1025C000511C892B89F581EC96E00E94F50682E08A
:1025D00090E00E94FC02682F81E090E06A8B0E94EC
:1025E000FC026A890E94300360931B0770931C07EA
:1025F00080931D0790931E0784E090E00E94FC02E8
:10260000682F83E090E06A8B0E94FC026A890E9436
:10261000300360931F0770932007809321079093E6
:10262000220785E090E0A1C96AE273E088E198E0C2
:102630000E94511C892B09F037C181EA96E00E9463
:10264000890785E090E00E94FC0254D25C0186E09C
:1026500090E00E94FC024ED24C0181E090E00E948A
:10266000FC02A401B5010E946E0360938A07709377
:102670008B0780938C0790938D0782E090E00E94F7
:10268000FC02BC01CE0101960E945A1C83E090E03E
:102690000E94FC02BC01CE0101960E94461C84E00F
:1026A00090E00E94FC02BC01CE0101960E94461CF3
:1026B000BE016F5F7F4F8FE597E00E945A1CF0923A
:1026C0008F07E0928E07F0C0B1EAAB16B6E0BB060A
:1026D00011F00C94EF0980918E0790918F07059768
:1026E00009F0DEC0E0910D06F0910E06608571855F
:1026F000828593859B01AC010E94141C8111D0C07E
:102700000E94A40266EB72E083EB95E00E945A1CE3
:102710006EE273E08FE595E00E945A1CE0910D0691
:10272000F0910E0660857185828593850E947A02FC
:10273000BC018FE595E00E94461C69E373E08FE5DC
:1027400095E00E94461C0E942B02BC018FE595E09B
:102750000E94461C60E473E08FE595E00E94461CF1
:1027600064E673E08FE595E00E94461C0E94F0014C
:10277000E0910D06F0910E06648575858685978536
:102780009B01AC010E94141C81113AC00E94A4025A
:1027900062EB72E083EB95E00E945A1C62E473E006
:1027A0008FE595E00E945A1CE0910D06F0910E060F
:1027B00064857585868597850E947A02BC018FE5C0
:1027C00095E00E94461C69E373E08FE595E00E9466
:1027D000461C0E942B02BC018FE595E00E94461C1E
:1027E00060E473E08FE595E00E94461C64E673E0C8
:1027F0008FE595E00E94461C0E94F0010E94AC0209
:10280000E0910D06F0910E066481758186819781B5
:102810009B01AC010E94141C81113AC00E94A402C9
:102820006EEA72E083EB95E00E945A1C6DE473E05F
:102830008FE595E00E945A1CE0910D06F0910E067E
:1028400064817581868197810E947A02BC018FE53F
:1028500095E00E94461C69E373E08FE595E00E94D5
:10286000461C0E942B02BC018FE595E00E94461C8D
:1028700060E473E08FE595E00E94461C64E673E037
:102880008FE595E00E94461C0E94F0010E94AC0278
:1028900088E593E00E946C018FE595E00E947D0140
:1028A0000E94FD040C94B2088CE997E00E946C0130
:1028B00012CFEEE6F3E01382128248EE53E060E0BE
:1028C00070E044835583668377838CE592E091833F
:1028D000808325E331E03587248724E331E037879F
:1028E000268720E331E0318B208B21E331E0338BED
:1028F000228B22E331E0358B248B26E331E0378BCA
:10290000268B118E128E138E148EEBE0F4E0138260
:10291000128244835583668377839183808325ED78
:1029200030E03587248724ED30E03787268720ED97
:1029300030E0318B208B21ED30E0338B228B22ED88
:1029400030E0358B248B26ED30E0378B268B118ED3
:10295000128E138E148EE8EAF4E0138212824483FE
:102960005583668377839183808385EC90E0958798
:10297000848784EC90E09787868780EC90E0918B49
:10298000808B81EC90E0938B828B82EC90E0958B36
:10299000848B86EC90E0978B868B118E128E138E33
:1029A000148E1092200810921F0810922208109284
:1029B000210810922308E3E1F6E08BED9FE0A9E403
:1029C000B0E4848B958BA68BB78B84EE98E3AEE84E
:1029D000BEE3808F918FA28FB38F82EA92EBA3E048
:1029E000BFE3848F958FA68FB78F85E39AEFAEE80C
:1029F000BCE380A391A3A2A3B3A380EE9EE2A5E6CD
:102A0000B2E484A395A3A6A3B7A386E696E6A6E6BA
:102A1000B0E480A791A7A2A7B3A785EE9FECA8EF8B
:102A2000BFE384A795A7A6A7B7A780E090E8A7EE85
:102A3000B4E480AB91ABA2ABB3AB85E89BEFABE06A
:102A4000BFE384AB95ABA6ABB7AB88E499EFA1E548
:102A5000B0E480AF91AFA2AFB3AF80E5E8E0F2E0C1
:102A6000A1E5B6E001900D928A95E1F781EA96E042
:102A70000E94890781EC96E00E94F50687E297E0C4
:102A80000E945E0787E497E00E94D6068BE597E0F8
:102A90000E949C0610928F0710928E0780E5E8E056
:102AA000F2E0A9EBB5E001900D928A95E1F7089567
:102AB000EF920F931F93CF93DF93E80147FD02C07E
:102AC00034E001C034E1E42F440FFF0BF7FF03C0F3
:102AD000F195E195F109E32E022F2E2FAE012FD0B3
:102AE000CE01DF91CF911F910F91EF90089566274E
:102AF0007727B2C1FC0188279927E89421912032D9
:102B0000E9F3293010F02E30C8F32B3239F02D3292
:102B100031F4689403C00BD0820F911D2191205392
:102B20002A30C8F31EF4909581959F4F08957AE05E
:102B3000979F902D879F802D910D112408954F927E
:102B40005F926F927F929F92AF92BF92CF92DF92ED
:102B5000EF92FF920F931F93CF93DF93CDB7DEB722
:102B600029970FB6F894DEBF0FBECDBF6A01122FB2
:102B7000B02E2BE3201720F0FF24F394F00E02C0B8
:102B8000BCE3FB2E0F2D27E0AE014F5F5F4FCAD293
:102B9000AC018981982F9970913031F0E1FC06C029
:102BA000E0FE06C090E205C09DE203C09BE201C0CA
:102BB00090E0EE2DE07183FF3CC0911102C083E0F4
:102BC00001C084E0811718F4212F281B01C020E0E8
:102BD000E1110BC0F601822F30E2882319F0319306
:102BE0008150FBCFC20ED11C20E0992329F0D601E1
:102BF0009C93F60131966F01C6010396E2FE0AC06E
:102C00003EE4D6013C9341E411964C931197129601
:102C10003C9306C03EE6F601308341E641833283B1
:102C2000FC01322F40E2332309F442C0419331507A
:102C3000FACF82FF44C0911102C083E001C084E05A
:102C4000811718F4212F281B01C020E0E1110BC0CF
:102C5000F601822F30E2882319F031938150FBCFA7
:102C6000C20ED11C20E0992329F0D6019C93F601D5
:102C700031966F01C6010396E2FE0BC039E4D6011E
:102C80003C933EE411963C93119736E412963C93A4
:102C900007C039E6F60130833EE6318336E63283FB
:102CA000FC01322F40E2332319F041933150FBCF26
:102CB000FC01E20FF11D10828EEF9FEFB7C0F1E033
:102CC000911101C0F0E06F2F70E01416150624F486
:102CD0009A012F5F3F4F02C021E030E0260F371FDF
:102CE000BB2029F06B2D70E06F5F7F4F02C060E06A
:102CF00070E0260F371F612F70E0261737071CF48E
:102D0000121B212F01C020E03E2D387159F4D6014D
:102D1000322F60E2332319F06D933150FBCFC20E96
:102D2000D11C20E0FF2331F0D6019C93B6016F5FE8
:102D30007F4F6B01E1110BC0F601922F30E3992315
:102D400019F031939150FBCFC20ED11C20E09F2D82
:102D5000940F3A81782F7071A72E84FF03C031330E
:102D600009F49150191624F4993018F098E001C034
:102D700091E0E42F852F57FF02C0E0E080E06E2F46
:102D8000782FE0E0F0E0AEE29A2E3A01691A71087D
:102D90002A01461A570A0B2D10E0119501951109C9
:102DA0006F3F8FEF780729F4D6019C92C6010196F8
:102DB0006C014617570784F0661677066CF47F019E
:102DC000E40CF51CA1E0B0E0AC0FBD1FEA0EFB1E49
:102DD000D7011196BC9002C090E3B92E61507109E1
:102DE0003196C60101967C016017710724F0D60167
:102DF000BC926C01D5CF6417750741F4363320F4CB
:102E0000353321F4A11002C081E3B82EF601B0825F
:102E1000F701822F90E2882319F091938150FBCF24
:102E2000F701E20FF11D108280E090E029960FB6C5
:102E3000F894DEBF0FBECDBFDF91CF911F910F91F0
:102E4000FF90EF90DF90CF90BF90AF909F907F90DA
:102E50006F905F904F9008956F927F928F929F92A4
:102E6000AF92BF92CF92DF92EF92FF920F931F9398
:102E7000CF93DF93EC017B016115710519F0DB0144
:102E80008D939C938E010F5F1F4F7880872D90E06C
:102E900021D2892B11F0E801F5CFBDE27B1205C0EC
:102EA0000F5F1F4F7980C1E008C0EBE27E1204C0C3
:102EB0008E010E5F1F4F7980C0E06801F1E0CF1AEC
:102EC000D10843E050E06CEE70E0C6010BD2892BD4
:102ED000E9F4680122E0C20ED11C45E050E067EE43
:102EE00070E0C601FFD1892B21F4680187E0C80E8C
:102EF000D11CE114F10419F0D701CD92DC92C1117B
:102F0000F9C060E070E080E89FE7FDC043E050E07A
:102F100064EE70E0C601E6D1892B51F4E114F104AE
:102F200009F4EDC00E5F1F4FF70111830083E7C066
:102F3000680160E070E0CB0100E010E0F601D0ED48
:102F4000D70DDA3050F52C2F2260622E2C2F2870EE
:102F5000C2FF05C0211127C00F5F1F4F24C02223CD
:102F600011F001501109A5E0B0E09B01AC01EED2D7
:102F70004B015C01880C991CAA1CBB1CC501B40147
:102F80006D0F711D811D911D6839A9E97A078A07A6
:102F9000A9E19A0740F0C66005C0DE3F51F4C3FDC9
:102FA00044C0C8606C2EBFEFCB1ADB0A7080C62D00
:102FB000C5CF2D2F2F7D2531C1F540814D3211F424
:102FC000C06106C04B3221F0319621E030E006C0EE
:102FD0003296D60111964C9122E030E0A0EDA40F7C
:102FE000AA3018F0E21BF30B20C040E050E040385C
:102FF000BCE05B075CF49A01220F331F220F331FE2
:10300000420F531F440F551F4A0F511D3196DF01C8
:1030100011972C91A0EDA20FAA3048F3C4FF03C072
:10302000519541955109040F151FC1FF07C0E114C7
:10303000F10421F03197D701ED93FC936FD1C37068
:10304000C33019F06B017C0106C06B017C01F7FAFB
:10305000F094F7F8F09420E030E0A901C701B60140
:1030600059D1882309F443C017FF06C01195019573
:103070001109C3E0D1E002C0CBE1D1E05E01B8E1CB
:10308000AB1AB1084601BE2DAF2D90E2E92EF12C0E
:103090000E151F057CF0FE01259135914591549147
:1030A000B4018B2F9A2F9BD14B01B82FA92F0E194A
:1030B0001F09EECF2497F594E794CA15DB0541F775
:1030C0006401EB2EFA2E8E2D880F8F2D881F8F3FD7
:1030D00041F020E030E0A901C701B6011BD1811108
:1030E00006C082E290E090932E0880932D08C701DD
:1030F000B60109C060E070E080E89FEF04C060E0C6
:1031000070E080EC9FE7DF91CF911F910F91FF90CE
:10311000EF90DF90CF90BF90AF909F908F907F9077
:103120006F900895283008F027E03327DA01990FCF
:10313000311D87FD916000966105710539F432609B
:103140002E5F3D9330E32A95E1F708959F3F30F0DD
:1031500080387105610509F03C5F3C5F3D9391301B
:1031600008F08068911DDF93CF931F930F93FF9218
:10317000EF92192F987F9695E92F96959695E90FDE
:10318000FF27E758FE4F99273327EE24FF24A70196
:10319000E70105900894079428F4360FE71EF81EFF
:1031A000491F511D660F771F881F991F0694A1F7AD
:1031B0000590079428F4E70EF81E491F561FC11DFD
:1031C000770F881F991F661F0694A1F70590079433
:1031D00028F4F80E491F561FC71FD11D880F991FCD
:1031E000661F771F0694A1F70590079420F4490FF6
:1031F000561FC71FD81F990F661F771F881F069479
:10320000A9F784911095177041F0D695C7955795F9
:103210004795F794E7941A95C1F7EFE1F1E06894C8
:103220001590159135916591959105907FE2739573
:10323000E118F10A430B560BC90BD009C0F7E10C9A
:10324000F11E431F561FC91FD01D7EF4703311F4A9
:103250008A95E6CFE894015030F0080F0AF4002771
:10326000021708F4202F2395022F7A3328F079E3F0
:103270007D932A95E9F710C07D932A9589F60694E7
:1032800097956795379517951794E118F10A430BB1
:10329000560BC90BD00998F023957E9173957A331C
:1032A00008F070E37C932013B8F77E9170617D93F2
:1032B00030F0839571E37D9370E32A95E1F7112453
:1032C000EF90FF900F911F91CF91DF91992787FD8C
:1032D000909508959111E6C0803219F0895085507B
:1032E000D0F70895FB01DC014150504088F08D91EA
:1032F00081341CF08B350CF4805E659161341CF0D8
:103300006B350CF4605E861B611171F3990B0895A7
:10331000881BFCCF40D008F481E00895E89409C0F0
:1033200097FB3EF490958095709561957F4F8F4FF8
:103330009F4F9923A9F0F92F96E9BB279395F6950E
:10334000879577956795B795F111F8CFFAF4BB0F8C
:1033500011F460FF1BC06F5F7F4F8F4F9F4F16C0F0
:10336000882311F096E911C0772321F09EE8872F7A
:10337000762F05C0662371F096E8862F70E060E036
:103380002AF09A95660F771F881FDAF7880F9695AF
:10339000879597F90895990F0008550FAA0BE0E853
:1033A000FEEF16161706E807F907C0F01216130607
:1033B000E407F50798F0621B730B840B950B39F447
:1033C0000A2661F0232B242B252B21F408950A26AD
:1033D00009F4A140A6958FEF811D811D08950BD0A2
:1033E0007BC06CD028F071D018F0952309F05DC037
:1033F00062C01124A5C081D0A0F3959FD1F3950F91
:1034000050E0551F629FF001729FBB27F00DB11D68
:10341000639FAA27F00DB11DAA1F649F6627B00DF8
:10342000A11D661F829F2227B00DA11D621F739FE1
:10343000B00DA11D621F839FA00D611D221F749FEF
:103440003327A00D611D231F849F600D211D822F36
:10345000762F6A2F11249F5750408AF0E1F088237D
:103460004AF0EE0FFF1FBB1F661F771F881F91508A
:103470005040A9F79E3F510570F017C061C05F3FF3
:10348000ECF3983EDCF3869577956795B795F795BD
:10349000E7959F5FC1F7FE2B880F911D9695879545
:1034A00097F9089599278827089597F99F6780E8E5
:1034B00070E060E008959FEF80EC089500240A9486
:1034C0001616170618060906089500240A941216FF
:1034D0001306140605060895092E0394000C11F432
:1034E000882352F0BB0F40F4BF2B11F460FF04C0DF
:1034F0006F5F7F4F8F4F9F4F089557FD9058440F38
:10350000551F59F05F3F71F04795880F97FB991F42
:1035100061F09F3F79F087950895121613061406FF
:10352000551FF2CF4695F1DF08C01616170618068C
:10353000991FF1CF86957105610508940895E89467
:10354000BB2766277727CB0197F9089509D0A59F58
:10355000900DB49F900DA49F800D911D112408958E
:10356000A29FB001B39FC001A39F700D811D1124C4
:10357000911DB29F700D811D1124911D0895505809
:10358000BB27AA270ED0A8CF99DF30F09EDF20F00E
:1035900031F49F3F11F41EF48ECF0EF4E095E7FB5B
:1035A00084CFE92FAADF80F3BA1762077307840775
:1035B000950718F071F49EF5C2CF0EF4E0950B2E2E
:1035C000BA2FA02D0B01B90190010C01CA01A00175
:1035D0001124FF27591B99F0593F50F4503E68F1D0
:1035E0001A16F040A22F232F342F4427585FF3CF11
:1035F000469537952795A795F0405395C9F77EF4E2
:103600001F16BA0B620B730B840BBAF09150A1F02A
:10361000FF0FBB1F661F771F881FC2F70EC0BA0FB0
:10362000621F731F841F48F4879577956795B79538
:10363000F7959E3F08F0B3CF9395880F08F0992730
:10364000EE0F9795879508950CD046CF3EDF40F05A
:1036500035DF30F021F45F3F19F027CF511170CFE3
:103660002ACF4BDF98F39923C9F35523B1F3951B68
:10367000550BBB27AA2762177307840738F09F5F93
:103680005F4F220F331F441FAA1FA9F333D00E2E02
:103690003AF0E0E830D091505040E695001CCAF76F
:1036A00029D0FE2F27D0660F771F881FBB1F261734
:1036B00037074807AB07B0E809F0BB0B802DBF0107
:1036C000FF2793585F4F2AF09E3F510568F0EDCEDB
:1036D00037CF5F3FECF3983EDCF38695779567959F
:1036E000B795F7959F5FC9F7880F911D96958795B8
:1036F00097F90895E1E0660F771F881FBB1F6217D7
:1037000073078407BA0720F0621B730B840BBA0B94
:10371000EE1F88F7E095089504D06894B11110CF9A
:103720000895F3DE88F09F5790F0B92F9927B7518D
:10373000A0F0D1F0660F771F881F991F1AF0BA9575
:10374000C9F712C0B13081F0FADEB1E00895F7CECA
:10375000672F782F8827B85F39F0B93FCCF386956B
:1037600077956795B395D9F73EF4909580957095C8
:1037700061957F4F8F4F9F4F08953BD080F09F37CB
:1037800040F491110EF0DCCE60E070E080E89FEB39
:10379000089526F41B16611D711D811D01C01BC0FB
:1037A000882371F4772321F09850872B762F07C058
:1037B000662311F499270DC09051862B70E060E0CC
:1037C0002AF09A95660F771F881FDAF7880F96956B
:1037D000879597F908959F3F31F0915020F4879590
:1037E00077956795B795880F911D9695879597F969
:1037F00008958BDEA0F0BEE7B91788F4BB279F3889
:1038000060F41616B11D672F782F8827985FF7CFC1
:10381000869577956795B11D93959639C8F3089568
:10382000BADD08F48FEF0895B6DD880B990B089583
:10383000A1E21A2EAA1BBB1BFD010DC0AA1FBB1FB4
:10384000EE1FFF1FA217B307E407F50720F0A21B26
:10385000B30BE40BF50B661F771F881F991F1A9493
:1038600069F760957095809590959B01AC01BD01BD
:10387000CF010895EE0FFF1F881F8BBF0790F691B1
:10388000E02D199481E090E0F8942AC0FB01DC015E
:103890000D900020E9F7119701900D920020E1F7BB
:1038A0000895FB01DC018D91019080190110D9F37D
:1038B000990B0895FB01DC0101900D920020E1F7C6
:1038C0000895FB01DC014150504048F001900D92F9
:1038D0000020C9F701C01D9241505040E0F7089503
:0438E000F894FFCF8A
:1038E40001000300050006008E02920296029A026D
:1038F4009E02A202A602AA02AE02B202B602BA0254
:10390400BE025F03C602CA02CE02D202D602DA02A5
:10391400DE02E202E602EA02EE02F202F602FA0233
:10392400FE02020306030A030E03120316031A031C
:103934001E0322038A028A020000000090043F0151
:103944001604DC0447042504390453657269616C68
:10395400206F6B0073657269616C33206F6B007349
:10396400657269616C32206F6B002D2D2D00414111
:103974004D00415041004150420042454300424FF6
:1039840044004257430042575200425757004442B2
:103994004B004442530044425400445054004747AF
:1039A4004100474C4C00475341004753560048449C
:1039B400470048444D0048445400485343004D5484
:1039C40057004D5744004D5756004F534400524F33
:1039D4004F00524D4100524D4200524D4300524F50
:1039E400540052504D005253410056445200564820
:1039F4005700564C570056544700565752005743E9
:103A04005600574E430057504C005A44410024532B
:103A1400444442542C2C662C002C4D2C2C462A0059
:103A24000D002453444442532C2C662C002453444C
:103A340044424B2C2C662C0073656E743A2000476C
:0E3A4400474C000D0A002453444450542C00FB
:00000001FF
